:020000040800F2
:10000000200900209D02000877530008774500086A
:1000100075530008DD160008FD68000800000000A8
:100020000000000000000000000000001D58000853
:10003000DF16000800000000795300081F58000870
:10004000B7020008B7020008B7020008B7020008AC
:10005000B7020008B7020008B7020008B70200089C
:10006000B7020008B7020008B7020008B70200088C
:10007000B7020008B7020008B7020008B70200087C
:10008000B702000800000000B7020008B70200082D
:10009000B7020008B7020008B7020008B70200085C
:1000A00099580008B7020008B7020008B702000814
:1000B000A5580008B7020008B7020008B7020008F8
:1000C000B7020008B7020008B7020008B70200082C
:1000D000B7020008F1680008B7020008B70200087C
:1000E000B7020008B7020008B7020008B70200080C
:1000F000B7020008B7020008B702000800000000BD
:1001000000000000B702000800000000B70200086D
:10011000B702000800000000B1580008B70200084C
:10012000B7020008B7020008B7020008B7020008CB
:10013000B70200080000000000000000B70200083D
:10014000B7020008B702000800000000000000002D
:10015000000000000000000000000000000000009F
:10016000000000000000000000000000B7020008CE
:10017000B7020008000000000000000000000000BE
:1001800000000000B70200080000000000000000AE
:10019000000000000000000000000000000000005F
:1001A0000000000000000000B7020008B7020008CD
:1001B000B7020008B7020008B702000800000000FC
:1001C00000000000B702000800000000000000006E
:1001D000B7020008B702000800F002F800F04FF87C
:1001E0000AA090E8000C82448344AAF10107DA4592
:1001F00001D100F044F8AFF2090EBAE80F0013F095
:10020000010F18BFFB1A43F001031847107C0000D0
:10021000307C0000103A24BF78C878C1FAD8520761
:1002200024BF30C830C144BF04680C607047000070
:100230000023002400250026103A28BF78C1FBD8EF
:10024000520728BF30C148BF0B607047662906F0CF
:100250007384642900F0F680782900F02F81002053
:1002600070471FB506F063FC00F0A0FC04000020FE
:10027000002106F0CFFBE0601FBD10B510BD00F0FF
:1002800095FD1146FFF7EDFF06F06EFB00F0B3FDA4
:1002900003B4FFF7F2FF03BC00F0F6FD0948804706
:1002A00009480047FEE7FEE7FEE7FEE7FEE7FEE758
:1002B000FEE7FEE7FEE7FEE704480549054A064B70
:1002C0007047000089580008D90100082003002069
:1002D00020090020200500202005002053EA020C00
:1002E00000F069802DE9F04B4FF00006002B1FBF96
:1002F000B3FA83F503FA05F424FA05F65E4012BF5B
:100300001643B2FA82F502FA05F4C5F120051EBFC4
:1003100022FA05FC44EA0C04203556EA044C4FEA64
:10032000144418BF641C4FF000084FF000099042BD
:1003300071EB030C39D3002919BFB1FA81F701FA27
:1003400007F6B0FA80F700FA07F6C7F120071EBFDC
:1003500020FA07FC46EA0C062037B6FBF4FCA7EBB4
:100360000507103F07F01F0BCBF120060CFA0BFB23
:100370002CFA06F644BFB3460026202FA4BF5E46E3
:100380004FF0000B5BEA060C08BF4FF0010B19EBB6
:100390000B09ABFB027C48EB0608C01B06FB02CC3A
:1003A0000BFB03CC71EB0C01C1E70B460246414647
:1003B0004846BDE8F08B13B54FF000004FF0000148
:1003C000AFF30080BDE81C40704700000FB41CB5BF
:1003D000074B06AA7B4469460090059800F0CDFBC8
:1003E0000020694600F0DCFB1CBC5DF814FB00003B
:1003F000C907000070B5044685690068C10601D5CB
:10040000302600E02026C00707D070BDD4E90121C6
:1004100030469047206A401C20626D1EF6D570BDA4
:1004200070B5044685690078C00707D170BDD4E96E
:10043000012120209047206A401C20626D1EF6D5C5
:1004400070BD00002DE9F0410646002410687529B2
:10045000314616A510D0AFF30080002802DA4042E2
:1004600013A507E031688A0701D512A502E0490704
:1004700004D511A5012401E0AFF3008000210A2278
:1004800006F1240709E0B0FBF2FCB0FBF2F302FB3B
:100490001C00303078541846491C0028F3D12346FC
:1004A0002A463046BDE8F04100F0FAB800000000EE
:1004B0002D0000002B0000002000000070B5044655
:1004C0000D4621461068AFF300802188090502D54A
:1004D0000F4A7A4402E00E4A7A440E32002104F1B7
:1004E000240305E000F00F060009965D5E54491CE8
:1004F0000028F7D120780023000704D5702D02D002
:1005000009B1022311322046BDE8704000F0C8B89E
:10051000767800002DE9F05F894604464FF0000A26
:10052000DFF824B1FB44C0F820A02046E1688847EA
:1005300000287DD0252806D0D4E901219047206AE3
:10054000401C2062F1E700255F462046E1688847AD
:100550002028064607DB312E05D2B81910F8200CEA
:1005600008B10543F1E7A80701D525F00405C4F853
:100570001CA00027C4F818A02A2E09D0304606F087
:10058000E6F938B304EB8708303EC8F8186019E084
:1005900059F8041B204604EB87029161E168884703
:1005A000012F064618D1E069002820DA25F0200541
:1005B0001DE0D8F8180000EB800006EB4000303852
:1005C000C8F818002046E1688847064606F0BFF9DB
:1005D0000028EED1012F0AD02E2E08D12046E16846
:1005E00088477F1C0646022F45F02005C4DBA06922
:1005F000002803DA404245F00105A061E80701D078
:1006000025F01005A6B1A6F14100192802D8203620
:1006100045F400654A463146204625604D46FFF7C1
:1006200015FE60B1012807D0ED1D25F0070000E0A0
:1006300007E000F1080978E705F1040975E730469D
:100640007AE7206ABDE8F09F4C7800004FF0000286
:1006500000B5134694469646203922BFA0E80C50B8
:10066000A0E80C50B1F12001BFF4F7AF090728BF93
:10067000A0E80C5048BF0CC05DF804EB890028BF0F
:1006800040F8042B08BF704748BF20F8022B11F038
:10069000804F18BF00F8012B7047704770477047B4
:1006A0002DE9F0470D4699469246044600F124088C
:1006B0000168880604D5E06921F01001216000E09E
:1006C0000120A84201DD471B00E00027A1697A193B
:1006D00002EB0900081AA0612078C00602D4204667
:1006E000FFF788FE002608E0D4E901211AF8060089
:1006F0009047206A401C761C20624E45F4DB20782F
:10070000C0060AD52046FFF775FE06E0D4E90121B0
:1007100030209047206A401C2062381EA7F1010754
:10072000F4DC07E0D4E9012118F805009047206ABD
:10073000401C2062281EA5F10105F3DC2046FFF7CE
:100740006FFE2078000602D50220BDE8F087012068
:10075000FBE770472DE9FF4F0C461E464FF0FF3771
:100760008BB0D2E90001DDF860800A908A46C1F3BF
:100770000A5505B93D46002108464FF00000BAF180
:10078000000F00F4400005DA00EB80004FF4400158
:1007900001EA50004FEA9059B9F1010F00DDB94666
:1007A0000A9850EA4A000ED044F61050A5F2FF35E0
:1007B00045432F14B8F1000F1ED07542291E1EDDCF
:1007C000C9F100021CE0B8F1010F4FF0000001D0A8
:1007D000302103E0F24305E02154401CB042FBDB32
:1007E00030460022002121540B99C1F80880C1E94C
:1007F00000200FB0BDE8F08FBD1B6D1CDEE74A4640
:1008000000DA694206A800F05BFA06AB93E807003D
:1008100003AB83E8070050460A9900F03CFB8DE8E3
:100820000700A0F500501F3800900398002D0ADD46
:1008300042F21F014A460844002303A90390684678
:1008400000F0A5FD09E0A0F500504A461F3800233E
:1008500003A90390684600F0AFFD8DE8070000048F
:10086000000C03D04FF0FF30410800E01046B8F113
:10087000000F03D00022009215461EE0751E05D41D
:1008800000F098F9303262556D1EF9D5B346012259
:10089000084302D000227F1C04E02078302801D1D8
:1008A00000227F1E002A099784D01DE0112D07DA4F
:1008B00000F080F9303262556D1C50EA0102F5D12A
:1008C000084302D00098C8B10EE00021681E05E080
:1008D000235C625C63542254401E491C8142F7DB56
:1008E000AB46A81B401E0990002004F80B000B9893
:1008F000099AC0F80880C0E9002B7AE711264FF06A
:10090000000857E72DE9F04F88460446D21D22F033
:10091000070191B0D1E90001CDE90A0105F0EFFF2F
:1009200002460B98C00F01D02D2007E020688107F8
:1009300001D52B2002E0202101EAC000032A099002
:1009400001D0072A05DB03464146204600F078F92E
:100950000BE12078800601D5E06900E00620B8F1BF
:10096000650F814606D0B8F1660F18D0B8F1670F51
:1009700070D131E00020B9F1110F009001DB11239B
:1009800001E009F101030AAA01A90CA8FFF7E2FEA0
:10099000DDE90C70002609F10105834647E00120DE
:1009A0004B4600904FF000470AAA01A90CA8FFF798
:1009B000D1FEDDE90DB00C995D46002610B909F1B4
:1009C00001000D18B9EB050003D4C0F1FF3609F1A1
:1009D0000105A5EB09002BE0B9F1010F01DA4FF099
:1009E00001090020B9F1110F0090484601DD1123E3
:1009F00000E003460AAA01A90CA8FFF7ABFEDDE957
:100A00000C704D4600268346207800070AD4AB457B
:100A100000DA5D4601A8012D04DD411911F8011C21
:100A2000302907D04F4502DA17F1040F04DA01200C
:100A300082460FE06D1EEEE7002F02DCED1B3E4408
:100A400003E0781CA84200DD7D1CB81B00F1010A00
:100A50004FF000472078000703D4AA4501DB4FF090
:100A6000FF3A0021B7F1004F0DF143088DF8431014
:100A700024D002202B23002F01DA7F422D230A21CC
:100A8000021EA0F1010000DC5FB197FBF1FC97FBB7
:100A9000F1F201FB1C7C17460CF1300C08F801CD7B
:100AA000EEE7A8F1010003702188090501D5452171
:100AB00000E06521A0F1010800F8011C09980FA9C8
:100AC000A1EB0807FF1D00B10120411901EBEA70FD
:100AD000A1693844081A401EA0612078C00602D4DB
:100AE0002046FFF787FC099828B1D4E901219047F7
:100AF000206A401C20622078C00622D52046FFF7DD
:100B000079FC1EE0002E04DBB34502DD01A8805D08
:100B100000E03020D4E901219047206A401C206287
:100B2000761CAAF101005FEA000A0AD100F03EF843
:100B3000C0680168405CD4E901219047206A401CEC
:100B40002062281EA5F10105DCDC07E0D4E90121C3
:100B500018F8010B9047206A401C2062381EA7F14C
:100B60000107F3DC2046FFF75BFC032011B041E6F0
:100B700001694A1C02610878704700B58FB0CDE961
:100B800001310021059105497944CDE90310114651
:100B90006846FFF7BFFC0FB000BD0000E5FFFFFF98
:100BA0000A6802F8010B0A607047000000487047AD
:100BB000DC02002030B5B0F10A024FEA900E71F16C
:100BC00000034EEA817EB0EB0E0061EB91014FEA2B
:100BD000101E4EEA017E10EB0E0041EB11114FEAA0
:100BE000102E4EEA016E10EB0E0041EB11214FEA80
:100BF000104E4EEA014E10EB0E0041EB1141401831
:100C000041F100014FEAD00040EA41704FEAD101C2
:100C100010EB80054FEA810444EA907444EB010430
:100C20006D1944EB0404521BA3414FF0000348BF6D
:100C30000A3200D530BD401C41F1000130BD00003A
:100C40002DE9F0411F46044603260168072A01F4F6
:100C5000006004DB08B116A505E016A503E008B1A5
:100C600015A500E015A521F010002060A069C01EA8
:100C7000A0610FB1401EA0612046FFF7BBFB4FB142
:100C8000D4E9012138469047206A401C2062C01CEC
:100C9000206206E0206AFAE7D4E9012115F8010B89
:100CA0009047761EF8D22046FFF7BAFBBDE8F081E8
:100CB0004E414E006E616E00494E4600696E660000
:100CC0002DE9F047814616468AB0354878440DC86C
:100CD0008DE80D0032487844801C03AC0DC884E8D0
:100CE0000D0041F69B300844372190FBF1F290FB58
:100CF000F1F5A5F1800501FB12041B3C02D564420D
:100D0000012000E00020DFF898A080460027FA4488
:100D1000AAF1BE0A0EE0E0070AD03246684607EBA9
:100D2000470101230AEB810100F046FB8DE8070033
:100D300064107F1C002CEED1194F7F44AE3F19E0A8
:100D4000E80715D007EB04100DF1180A90E80E0023
:100D50008AE80E00C068F04201D198190890324626
:100D6000012306A903A800F027FB03AB83E80700D3
:100D70006D10641C002DE3D14FF00103324669462B
:100D8000B8F1000F03A802D000F001FB01E000F071
:100D900013FBC9E90001C9F808200AB0BDE8F087D3
:100DA0003471000000487047BC0200207546FFF710
:100DB000F9FFAE4605006946534620F00700854618
:100DC00018B020B5FFF778FABDE820404FF00006D4
:100DD0004FF000074FF000084FF0000B21F0070123
:100DE000AC46ACE8C009ACE8C009ACE8C009ACE866
:100DF000C0098D46704710B50446AFF30080204609
:100E0000BDE81040FFF744BA4FF0013C50F8042B06
:100E100051F8043B9A4221D1A2EB0C03934313EA0D
:100E2000CC1317D150F8042B51F8043B9A4215D13A
:100E3000A2EB0C03934313EACC130BD150F8042B11
:100E400051F8043B9A4209D1A2EB0C03934313EAF5
:100E5000CC13DBD04FF00000704700BFD01A01BAAE
:100E6000B1FA81F101F0180122FA01F0CB40C1F191
:100E70002001DBB2C0B2C01A2CFA01F3D11A91439F
:100E800011EAC311E6D1704701491820ABBEFEE755
:100E90002600020070475FEA400C08BF91F0000F87
:100EA0004FEA8C234FEAC12243EA51514FEA1C50CA
:100EB00018BF00F5F0404FEA300018BF41F0004184
:100EC0005FEA6C5C00F02980BCF1FF3F08BF40F096
:100ED00080407047130C06BF12044FF0100C4FF007
:100EE000000C130E04BF12020CF1080C130F04BF08
:100EF00012010CF1040C930F04BF92000CF1020CD0
:100F0000D30F04BF52000CF1010C11464FF0000248
:100F1000A0F11F00A0EB0C00704711F0004F08BFBC
:100F2000704731F000413FF4D5AF0B0C06BF090408
:100F30004FF0100C4FF0000C0B0E04BF09020CF127
:100F4000080C0B0F04BF09010CF1040C8B0F04BF3C
:100F500089000CF1020CCB0F04BF49000CF1010C0D
:100F6000CCF12003A0EB0C0022FA03F302FA0CF2FE
:100F700041EA030100F10100704720F07F4C80EA54
:100F8000030023F07F47ACEB070303F57C5300F02D
:100F9000004003F1FF032DE980494FEA154B09B4E6
:100FA0004FEA144325EA0B4E24EA03480FF20426C5
:100FB00006EB132749083E785FEA320203FB066717
:100FC000C7F5000707FB06F64FEA54374FEAD64647
:100FD00006F1020607FB066CCCF1005C4FEA1C47E9
:100FE0002CEA074C07FB06F40CFB06F504EB154650
:100FF0004FEA961634BF00204FF000404FEAD13739
:1010000006FB07FC4FEA1C4C0CFB0BF7D21B03FB47
:101010000CF761EB07010CFB0EF7B0EB074072EB2E
:1010200017420CFB08F734BFA2EB0742B2EB0742B2
:1010300061EB17414FEA0C444FEA910706FB07FCAE
:101040004FEA1C4C0CFB0BF7B0EBC74072EB57326E
:1010500003FB0CF734BFA2EBC742B2EBC74261EB14
:1010600057310CFB0EF7B0EBC70072EB57720CFB5D
:1010700008F734BFA2EBC702B2EBC70261EB5771AE
:10108000039F4FEA816141EA921104EBCC044FEADD
:10109000D1374FEA826206FB07FC42EA90124FEA20
:1010A00080604FEA1C4C0CFB0BF7D21B03FB0CF7C8
:1010B00061EB07010CFB0EF7B0EB074072EB174238
:1010C0000CFB08F734BFA2EB0742B2EB074261EB1F
:1010D00017414FEA8C554FEA910704EB9C2406FB1D
:1010E00007FC4FEA1C4C0CFB0BF7B0EBC74072EB54
:1010F000573203FB0CF734BFA2EBC742B2EBC74237
:1011000061EB57310CFB0EF7B0EBC70072EB577277
:101110000CFB08F734BFA2EBC702B2EBC70261EBCE
:10112000577115EB4C254FEA816141EA92114FEA64
:1011300082624FEAD13742EA901206FB07FC44F183
:1011400000044FEA80604FEA1C4C0CFB0BF7D21BEB
:1011500003FB0CF761EB07010CFB0EF7B0EB07404C
:1011600072EB17420CFB08F734BFA2EB0742B2EB5D
:10117000074261EB174115EB1C154FEA813141EA3B
:1011800092414FEA823242EA90424FEA80304FEA7F
:101190000C7644F1000448EA03434EEA0B484FF052
:1011A000000EB2EB080C71EB030724BF6246394610
:1011B0004EEB0E0E4FF0000B0018524149414BEB25
:1011C0000B0BB2EB080C71EB03077BF1000B24BF98
:1011D000624639464EEB0E0E4FF0000B001852419E
:1011E00049414BEB0B0BB2EB080C71EB03077BF1A6
:1011F000000B24BF624639464EEB0E0E51EA020741
:1012000018BF46F0010616EB0E7655F1000254F1B8
:10121000000103D5BDE88901BDE80088BDE889016A
:10122000BDE80048B619524141EB0101A3F10103A9
:10123000704780807F7E7D7C7B7A79787776767543
:101240007473727171706F6E6E6D6C6C6B6A6A69BB
:101250006868676666656464636362616160605F55
:101260005F5E5E5D5D5C5C5B5B5A5A5959585857CE
:101270005756565555555454535352525251515036
:1012800050504F4F4F4E4E4D4D4D4C4C4C4B4B4B89
:101290004A4A4A49494948484847474747464646CF
:1012A000454545444444444343434342424242410A
:1012B0004141002B9C4630D477002BD01CB54FEA1F
:1012C000370703B44FF010004FF01001BAF1000FD0
:1012D00006D0BCF1000FDCBF40F0080040F0080170
:1012E0004FF000000FBCBDE810400BF1010BBBF14B
:1012F000010F08BF5FEA170722BF12F1010211F1C7
:1013000001014FF0004143F1000300F0004043EAC7
:1013100000007047F9D35708D0E746EA064613F1B4
:10132000400F4FEA16461FDD13F1200FDFBF1643B3
:101330000A46002120335B42BED0C3F1200746EAB3
:10134000064602FA07F74FEA164646EA0706C3F1D1
:10135000200722FA03F201FA07F721FA03F14FF00E
:10136000000342EA0702A7E746EA020646EA064603
:101370004FEA164646EA0106BCBF46EA0646360C68
:101380004FF000034FF000024FF0000194E72DE909
:10139000804C9A46934670B491E8380007C831EA09
:1013A000400C48BF34EA430C03D5FFF7E6FDFFF7D6
:1013B00080FFF0BCBDE8008C2DE9804C9A46934636
:1013C00070B491E8380007C810F0804F08BF13F0E0
:1013D000804F03D100F005F8FFF76BFFF0BCBDE8CC
:1013E000008C20F07F4780EA030023F07F4C07EB5E
:1013F0000C03A3F57C5300F00040A3F1FE0392F030
:10140000000F00F0B38095F0000F00F077802DE919
:1014100001494FEA11404FEA144621EA004800FB17
:1014200006FC24EA064708FB06F607FB08F800FB63
:1014300007F718EB06484CEB164C4FEA124B18EB2B
:1014400007484FEA15464CEB174022EA0B4E0BFBC0
:1014500006FC25EA06470EFB06F607FB0EFE0BFB15
:1014600007F71EEB064E4CEB164C4FF000061EEB3A
:10147000074E4CEB174B18EB0B0840F1000018EB34
:101480000E0B58EB000840F100008F1A4FF00001DE
:101490003CBFC943661B14BFB5EB040C00213CBF25
:1014A000C943F61B4FEA17444EEA8E0E27EA04455D
:1014B0004FEA1C4704FB07622CEA074C05FB07F7C1
:1014C0000CFB05F604FB0CFC16EB074642EB17423F
:1014D00016EB0C4642EB1C421BEB060658EB0202D5
:1014E000414146EA9E0601D5BDE80189B61952413F
:1014F00041EB0101A3F10103BDE801894FEA144565
:101500004FEA114724EA054621EA074C05FB07F498
:1015100006FB07F70CFB06F105FB0CFC11EB074182
:1015200044EB17444FEA124711EB0C4144EB1C44C7
:1015300022EA074C05FB07F206FB07F70CFB06F651
:1015400005FB0CFC16EB074642EB174216EB0C466C
:1015500042EB1C456A1854F1000148BF7047B619A8
:10156000524141EB0101A3F10103704795F0000FD7
:1015700037D04FEA11424FEA144721EA024624EAE3
:10158000074C02FB07F106FB07F70CFB06F402FB16
:101590000CFC14EB074441EB17414FEA154714EBE1
:1015A0000C4441EB1C4125EA074C02FB07F506FB06
:1015B00007F70CFB06F602FB0CFC16EB074645EBA7
:1015C000174516EB0C4645EB1C42121951F1000170
:1015D00048BF7047B619524141EB0101A3F1010325
:1015E00070474FEA14454FEA114724EA054621EABD
:1015F000074C05FB07F106FB07F70CFB06F24FF063
:10160000000605FB0CFC12EB074241EB174112EB05
:101610000C4251EB1C4148BF7047921841EB01014D
:10162000A3F101037047000070B5044600688168AB
:1016300011F0010F2DD18168174A11421AD181682A
:10164000D5432940491C816000F0D0FD06461BE0CF
:10165000816811F0010F03D181682940491C816024
:1016600000F0C4FD801B02280ED920680068C0432A
:10167000C00709D0E06D40F01000E065206E40F03A
:1016800001002066012070BD20680168C943C907B8
:10169000DED1002070BD00003F00008010B50B4877
:1016A00000F078FB094800F037FA00EE100ADFED91
:1016B000080A0948B8EE400A20EE200ADFED050AC4
:1016C00020EE200A80ED040A10BD00006800002012
:1016D000000080393333534000000020FEE770479C
:1016E000002240F6B83306E00021491C89B2994235
:1016F000FBD3521C92B28242F6D3704772B6FEE719
:101700002DE9F84F00270446009790F85800DFF8BD
:10171000D8930D46B846012811D0012684F85860A8
:10172000206803F0BBFA60B1E06D40F02000E06596
:101730005FF0010784F858803846BDE8F88F022032
:10174000FBE7D5E900210C23206803EA9113184434
:10175000036B01F01F014FF01F0C0CFA01FCC2F3E8
:10176000846223EA0C038A4013430363206803F076
:1017700095FA8246206803F08DFA5AEA00003CD1BF
:10178000AA6829682068B2F1004F37D003F08AFABE
:101790002068416921F00041416120686969C2689F
:1017A000C2F3C102520091402A69042A31D000EBF1
:1017B00082002B68026EDFF834C303F0F84302EABC
:1017C0000C020B431A4342F00041016620682A696B
:1017D000A96900EB8200026E22F080720A43026661
:1017E000297F22682869012910D0002102EB80009E
:1017F000026E22F000720A4302667DE0002203F0CE
:1018000051FA2068416941F00041C5E74FF000718D
:10181000ECE7002103F038FA400320684FF00001A4
:1018200072D003F031FA90FAA0F0B0FA80F1286893
:1018300042036ED090FAA0F0B0FA80F0814204D159
:1018400000221146206803F03CFA0121206803F0D1
:101850001BFA400320684FF001015DD003F014FA39
:1018600090FAA0F0B0FA80F12868420359D090FABB
:10187000A0F0B0FA80F0814204D10022012120685A
:1018800003F01FFA0221206803F0FEF940032068EC
:101890004FF0020148D003F0F7F990FAA0F0B0FA47
:1018A00080F12868420344D090FAA0F0B0FA80F0AA
:1018B000814204D100220221206803F002FA0321B0
:1018C000206803F0E1F9400320684FF0030133D0B2
:1018D00003F0DAF990FAA0F0B0FA80F12868420338
:1018E0002FD090FAA0F0B0FA80F0814204D100220B
:1018F0000321206803F0E5F92068816811F0010FE9
:1019000022D0A8E000E004E003F0BEF9C0F3846157
:101910008DE7C0F3846091E703F0B6F9C0F384610A
:10192000A2E7C0F38460A6E703F0AEF9C0F38461D8
:10193000B7E7C0F38460BBE703F0A6F9C0F38461A6
:10194000CCE7C0F38460D0E7EB6829684B4550F8DA
:10195000B03FC1F3120101D10B4300E08B430360A0
:10196000E868484577D1286841031CD090FAA0F177
:10197000B1FA81F1491C01F01F0109294FEA4031F8
:1019800032D8002912D000BF90FAA0F1B1FA81F14B
:1019900001F1010101F01F0106FA01F609D100BFB2
:1019A000C0F3846109E0C0F38461E3E7C0F38461BC
:1019B000EEE790FAA0F1B1FA81F101F1010101F035
:1019C0001F0146EA816102D1C0F3846003E090FA0E
:1019D000A0F0B0FA80F000F1010000F01F0000EB71
:1019E000400041EA005132E000290ED090FAA0F107
:1019F000B1FA81F101F1010101F01F0106FA01F6CE
:101A000006D100BFC0F3846106E0C0F38461F1E752
:101A100090FAA0F1B1FA81F101F1010101F01F0189
:101A200046EA816102D1C0F3846003E090FAA0F03D
:101A3000B0FA80F000F1010000F01F002C4A00EB2A
:101A4000400002EB005041EA000141F00071AA6839
:101A5000206803F027F927482A6802423FF46AAE5B
:101A600025488168254B01F0E0719A4202D0244B51
:101A70009A421CD10B021AD42268B2F1A04F7FF413
:101A800059AE826841F4000122F0E0720A4382609C
:101A90001C481D490068B0FBF1F0401C00EB400001
:101AA000800000E0401E00900028FBD142E6174D68
:101AB000174BAA4207D1CD0105D422689A42F5D02E
:101AC00041F0807109E0134DAA42EFD14A02EDD4F2
:101AD00022689A42EAD041F48001826822F0E072E2
:101AE0000A43826026E6000000007F4000F0FF030A
:101AF000000020FE0000088000030050000021C309
:101B00001000C09038000020400D0300000052C7B4
:101B100000010050000084CB0068006C704700009A
:101B2000F8B54FF0000504002E46009502D0E06D98
:101B300010B107E00120F8BD204600F0EFF826665E
:101B400084F8586020688168C1F3407119B18168D8
:101B50006A4A1140816020688168C1F3007189B9C7
:101B60008168674A114041F080518160654866494B
:101B70000068B0FBF1F04000801C00E0401E0090C7
:101B80000028FBD120688168C1F3007141B9E16D83
:101B900041F01001E165216E41F00101216601254E
:101BA00003F07CF8E16DC90600D430B1E06D40F07F
:101BB0001000E06501252846F8BDE06D20F4807036
:101BC00040F00200E0652068806810F0010F11D13C
:101BD0004FF0A04080684D4900F00100896801F095
:101BE0000101084306D14A486168826822F47C12E8
:101BF0000A438260E168E06B627F0843A16841EAC2
:101C00004231084394F8241040EA0140012904D1EC
:101C1000218D404A02EB41410843E16A29B101F4B8
:101C20007871226B014342EA01002168CA683A4B8D
:101C30001A400243CA6020680169626B21F040616A
:101C400011430161206803F029F80646206803F07B
:101C500021F830432ED1207F94F83810800340EAD9
:101C600041022068C16844F2020399431143C160F4
:101C700020690028206801690AD041F4803101619F
:101C8000206850F8C01F22696FF30D01114307E06F
:101C900021F480310161206850F8C01F6FF30D01FD
:101CA000016094F8400001280CD02068016921F0FF
:101CB00001010161606901282068016B21F00F01B9
:101CC00011D013E0D4E911010843D4E913121143F0
:101CD000084321680A6940F2FC739A43104340F0BC
:101CE00001000861E6E7226A521E11430163E06DBC
:101CF00020F0020040F00100E0655CE7C0FFFF5FFC
:101D0000C0FFFF7F38000020400D0300000100509D
:101D1000000300500000FEFF0740F0FF10B598B030
:101D20000446142111A8FEF791FC44216846FEF7F1
:101D30008DFC15492068884223D1C40140050094D8
:101D40000F90684600F050FB08B1FFF7D7FC0F4832
:101D5000C16C41F40051C164C16C01F40051169191
:101D6000C16C41F00201C164C06C11A900F0020015
:101D700016900320CDE9114000201390044800F094
:101D800007F918B010BD000000010050001002401B
:101D9000000400482DE9F04104463848806800F00E
:101DA0001F05206802F07AFF18B102210846BDE83D
:101DB000F08194F8580001280CD0012084F85800D4
:101DC0002046FFF731FC01004FF0000304D084F8F7
:101DD0005830EBE70220EAE7E06D40F601629043FD
:101DE00040F48070E065264A20684FF0A04690429B
:101DF00001D1374600E00746874200D01DB9E76DA4
:101E000027F48017E765E76DFF0404D5276E27F0F8
:101E10000607276600E023661C27076084F8583011
:101E20002068904201D1334600E00346834215D03A
:101E3000A5B1052D12D0092D10D0E36D43F4801308
:101E4000E365904200D13046C0688001AED5E06DB8
:101E500020F4005040F48050E065A7E7C26892018A
:101E600005D5E26D22F4005242F48052E2658268A8
:101E7000044B1A40121D826098E7000000030050D6
:101E800000010050C0FFFF7F10B590F82530002101
:101E90000122022B03D00421C163012122E0036847
:101EA0001C6824F00E041C60836C1C6824F480748D
:101EB0001C6003681C6824F001041C6090F8443026
:101EC000046C03F01F0302FA03F36360D0E91334D8
:101ED0005C60436D33B11C6824F480741C60D0E9ED
:101EE00016345C6080F82520002280F82420084603
:101EF00010BD70B590F82520002401212346022A48
:101F000007D00422C26380F8251080F82430012411
:101F100029E00268156825F00E051560026815684D
:101F200025F001051560826C156825F48075156033
:101F300090F84420056C02F01F0201FA02F26A6078
:101F4000D0E913255560426D32B1156825F48075CE
:101F50001560D0E91625556080F8251080F82430EA
:101F6000816B01B18847204670BD000070B5044602
:101F700000F03CF90546601C02D004484068044467
:101F800000F034F9401BA042FAD370BD2C000020B1
:101F90002DE9F04FDFF82092002301260324A9F158
:101FA000040B85B00F2709F1040AABF1040EFAE027
:101FB00006FA03F52A407CD091F804C00CF0030C1B
:101FC000BCF1010F02D0BCF1020F26D1D0F808C03D
:101FD000CDF800C04FEA430C04FA0CF8CDF810C05D
:101FE000DDF800C02CEA080CCDF800C0D1F80C8058
:101FF000DDF810C008FA0CF8DDF800C048EA0C085B
:10200000C0F80880D0F804C02CEA050C0D79C5F39F
:1020100000159D4045EA0C0545600D79ED43AD077F
:102020000ED0C5684FEA430804FA08FC25EA0C05FF
:10203000D1F808C00CFA08FC4CEA050CC0F80CC03A
:102040000D7905F00305022D16D1DD0800EB850C96
:10205000CDF808C0DCF820805D074FEAD56C07FAA0
:102060000CF528EA05080D6905FA0CF5DDF808C03D
:1020700045EA0805CCF8205005684FEA430CCDF836
:1020800008C004FA0CFC25EA0C0591F804C00CF019
:102090000308DDF808C008FA0CF848EA0508C0F89B
:1020A00000804D6815F4403F7CD0444DD5F860C0A9
:1020B00000E077E04CF0010CC5F860C02D6E23F015
:1020C000030C05F0010500953D4D65440295AD6892
:1020D0004FEA837C4FEA1C7807FA08FC25EA0C05D6
:1020E000B0F1904F06D0DFF8DCC0604505D14FF06D
:1020F000010C20E04FF0000C1DE0DFF8CCC0604583
:1021000002D14FF0020C16E0DFF8C0C0604502D1EA
:102110004FF0030C0FE0DFF8B8C0604502D14FF07C
:10212000040C08E0DFF8ACC0604502D14FF0050CAC
:1021300001E04FF0060C0CFA08FC4CEA050C029D7D
:10214000C5F808C0D9F80050CC46D1F804809543B2
:102150005FEAC82800D51543CCF80050DAF80050E3
:10216000D446D1F8048095435FEA882800D515430A
:10217000CCF80050DBF80050DC46D1F804809543E1
:102180005FEA883800D51543CCF80050DEF80050DF
:10219000F446D1F8048095435FEAC83800D515436A
:1021A000CCF800505B1C0A6832FA03F57FF400AFEC
:1021B00005B0BDE8F08F00000804014000100240A7
:1021C000000001400004004800080048000C0048DE
:1021D00000100048001400480069084000D00120A9
:1021E00070470AB181617047816270470148806819
:1021F000704700002C0000200248816842681144AA
:10220000816070472C00002010B50024032000F0EE
:1022100073F80F2000F008F808B1012401E000F085
:1022200025F8204610BD000070B50E4E054600246E
:10223000706898B14FF47A71B1FBF0F00A490968FF
:10224000B1FBF0F000F0F7FE40B9102D06D20022ED
:102250002946501E00F030F8356000E00124204689
:1022600070BD00002C000020380000200A4882B019
:10227000016E41F001010166016E01F00101009162
:10228000816D41F080518165806D00F0805000903B
:1022900002B000F0A1B8000000100240002809DBE5
:1022A00000F01F02012191404009800000F1E02070
:1022B000C0F8001170470000F0B40E4B1B680C46CC
:1022C000C3F30223C3F10705042D00D90425191D0A
:1022D000072901D2002300E0DB1E012606FA05F1E2
:1022E000491E214099409E40761E16403143F0BC65
:1022F00004F01DBB0CED00E0064900F00702086881
:102300004FF6FF03184040EA0220034A10430860DA
:10231000704700000CED00E00000FA052B492C4B43
:102320000A6832214A432B4940B1B0F5007F086862
:1023300029D020F4C06040F480602CE00868C0F32D
:102340004120022804D051F8800F20F4807022E050
:10235000D1F8800020F48070C1F88000086820F473
:10236000C06040F400700860B2FBF3F0401C00E075
:10237000401E4A69520501D50028F9D14869400537
:102380000AD503207047C0F34120022806D051F837
:10239000800F40F48070086000207047D1F8800002
:1023A00040F48070C1F88000086820F4C06040F4F8
:1023B00000700860B2FBF3F0401C00E0401E4A6968
:1023C0005205DBD50028F9D1D8E7000038000020FD
:1023D00040420F00007000400248816841F4804193
:1023E00081607047007000402DE9F84304460068A2
:1023F00000269D4D00035ED5A86D0027C00008D4BF
:10240000A86D40F08050A865A86D012700F08050AD
:102410000090DFF85892D9F8001041F48071C9F8A3
:102420000010FFF7E3FE804606E000BFFFF7DEFE88
:10243000A0EB080002282BD8D9F80000C005F5D57C
:10244000D5F8900010F4407014D0216C814211D066
:10245000D5F89000D5F8901020F4407041F4803108
:10246000C5F89010D5F8901021F48031C5F890107F
:10247000C5F89000C00711D0FFF7B8FE804641F2C2
:10248000883907E0FFF7B2FEA0EB0801494501D902
:1024900003260BE0D5F890008007F3D5D5F890001F
:1024A000216C20F440700843C5F890001FB1A86D5E
:1024B00020F08050A8652078C00707D0D5F88800A4
:1024C000616820F003000843C5F888002078800781
:1024D00007D5D5F88800A16820F00C000843C5F89E
:1024E00088002078400707D5D5F88800E16820F0FB
:1024F00030000843C5F888002078000707D5D5F8D4
:102500008800216920F0C0000843C5F888002078C1
:10251000800607D5D5F88800616920F4406008433B
:10252000C5F888002078400607D5D5F88800A1694D
:1025300020F440500843C5F888002078000607D5ED
:10254000D5F88800E16920F440400843C5F88800C8
:102550002088C00507D5D5F88800216A20F44030CE
:102560000843C5F888002088800507D5D5F888007D
:10257000616A20F440200843C5F88800208840059F
:102580000FD5D5F88800A16A20F440100843C5F89B
:102590008800A06AB0F5801F03D1E86840F480107D
:1025A000E860208800050FD5D5F88800E16A20F49E
:1025B00040000843C5F88800E06AB0F5800F03D1F9
:1025C000E86840F48010E8602088C0040FD5D5F892
:1025D0008800216B20F040700843C5F88800206B0C
:1025E000B0F1807F03D1E86840F48010E860208873
:1025F0004FF0006180040ED5D5F88800626B20F0A2
:1026000040601043C5F88800606B884203D1E868D9
:1026100040F48010E860208840040ED5D5F888008A
:10262000A26B20F040601043C5F88800A06B884280
:1026300003D1E86840F48010E860208800040FD5DA
:10264000D5F88800E16B20F040500843C5F88800B9
:10265000E06BB0F1805F03D1E86840F48030E8605F
:102660003046BDE8F88300000010024000700040D2
:102670002DE9F0470E4605004FF0000725D0DFF8A2
:10268000AC81D8F8000000F00F00B0420CD2D8F8AE
:10269000001021F00F013143C8F80010D8F80000F5
:1026A00000F00F00B04210D12968614CC80741F218
:1026B000883A5AD06868DFF87C91032808D002284D
:1026C00020682DD0400500282CDB0120BDE8F087D4
:1026D00020688001F9D5E06800F00302E068C0F3EB
:1026E0000310401C032A19D0534A00BFB2FBF0F07C
:1026F000E268C2F306225043E268C2F34162521C10
:102700005200B0FBF2F0484517D9A06810F0F00F66
:102710000CD0880711D5A86840B10EE0474AE5E71C
:102720008003D0E700F0B6F8484506D9A06820F04D
:10273000F00040F08000A0608027A068696820F069
:1027400003000843A060FFF751FD814606E000BF8B
:10275000FFF74CFDA0EB090151453AD8A068696824
:1027600000F00C00B0EB810FF2D12868810714D57E
:10277000400703D5A06840F4E060A0602878000717
:1027800005D5A06820F4605040F4E060A060A06827
:10279000A96820F0F000084304E0802F03D1A0686E
:1027A00020F0F000A060D8F80010404601F00F01C2
:1027B000B14216D9016821F00F0131430160FFF7E2
:1027C00015FD074607E000BFFFF710FDC11B51458F
:1027D00001D903207AE7D8F8000000F00F00B042DA
:1027E000F2D12878400705D5A068E96820F4E060B8
:1027F0000843A0602878000706D5A068296920F45E
:10280000605040EAC100A06000F044F8A1680C4AA2
:10281000C1F30311515C01F01F01C8400949086070
:1028200009480068BDE8F047FFF7FEBC0020024001
:102830000010024000B4C4040024F40000366E010D
:10284000347D0008380000202C000020054806498F
:1028500000688968054AC1F30221515C01F01F013B
:10286000C84070473800002000100240447D000836
:102870000548064900688968054AC1F3C221515CD0
:1028800001F01F01C84070473800002000100240CE
:10289000447D0008184910B58868C0F381021748C4
:1028A000012A0BD08A68164BC2F38102022A06D095
:1028B0008A68C2F38102032A03D0002010BD1846A3
:1028C00010BDCA6802F00304CA68C2F30312521CA6
:1028D000032C02D0B0FBF2F001E0B3FBF2F0CA68C7
:1028E000C968C2F306225043C1F34161491C490043
:1028F000B0FBF1F010BD0000001002400024F40015
:1029000000366E012DE9F84304007AD02078FA4DA4
:10291000C00747D0A868E96800F00C0001F0030187
:102920000C2802D0082817D001E0032914D06068D1
:10293000B0F5803F17D0B0F5A02F286817D020F44D
:1029400080302860286820F4802028606068E0B12A
:10295000FFF74CFC064614E02868800322D5606827
:102960000028D2D01EE0286840F48030EDE740F423
:1029700080202860F7E700BFFFF738FC801B642841
:1029800070D828688003F7D50CE0FFF72FFC0646C7
:1029900005E000BFFFF72AFC801B6428F0D82868F8
:1029A0008003F7D4207880074CD5A868E96800F048
:1029B0000C0001F003010C2802D004280DD001E026
:1029C00002290AD0E068002828682BD040F48070E3
:1029D0002860FFF70BFC064619E02868400502D581
:1029E000E068002891D06868217C20F0FE4040EA31
:1029F00001606860C1480068FFF716FC002800D13C
:102A000020E076E1FFF7F2FB801B0228B8D82868A7
:102A10004005F7D56868217C20F0FE4040EA01605F
:102A200068600FE020F480702860FFF7DFFB064647
:102A300005E000BFFFF7DAFB801B0228A0D828685A
:102A40004005F7D42078000729D560690028D5F81B
:102A5000940013D040F00100C5F89400FFF7C6FBC6
:102A6000064606E090E000BFFFF7C0FB801B02288F
:102A700086D8D5F894008007F6D510E020F0010044
:102A8000C5F89400FFF7B2FB064604E0FFF7AEFB83
:102A9000801B022878D8D5F894008007F6D42078D7
:102AA000400761D5A86D0026C00008D4A86D40F08D
:102AB0008050A865A86D012600F0805000909048D5
:102AC0000168C90511D40168804641F48071016034
:102AD000FFF78CFB074604E0FFF788FBC01B0228CA
:102AE00052D8D8F80000C005F6D5A068012815D046
:102AF0000528D5F8900016D020F00100C5F8900008
:102B0000D5F8900020F00400C5F89000A06841F2CC
:102B10008838B8B1FFF76AFB07460EE0D5F8900099
:102B200040F00100F0E740F00400C5F89000F5E740
:102B3000FFF75CFBC11B414526D8D5F89000800704
:102B4000F6D50CE0FFF752FB074604E0FFF74EFB1B
:102B5000C11B414518D8D5F890008007F6D41EB1A6
:102B6000A86D20F08050A8652078800629D5A0693E
:102B70000028D5F8980013D040F00100C5F898005F
:102B8000FFF734FB064606E077E000BFFFF72EFBB9
:102B9000801B022877D8D5F898008007F6D510E07A
:102BA00020F00100C5F89800FFF720FB064604E07E
:102BB000FFF71CFB801B022865D8D5F8980080071A
:102BC000F6D4E069F0B3A968C1F38101032961D0AB
:102BD0000228286820F0807028600BD0E86820F078
:102BE0000300E860E86847490840E860FFF7FEFA3C
:102BF00004464BE0FFF7FAFA064604E0FFF7F6FA60
:102C0000801B02283FD828688001F7D4F4E9080126
:102C10006FF00F0202EB01110843218A52044908A8
:102C200002EB4151A26841EA02210843217D4FF0A5
:102C30007E42490802EB41610843217B40EAC160C2
:102C4000E96800E062E0304A11400843E860286823
:102C500040F080702860E86840F08070E860FFF71E
:102C6000C5FA044605E000BFFFF7C0FA001B0228C2
:102C700009D828688001F7D548E004E0FFF7B6FAE4
:102C8000001B022802D90320BDE8F88328688001D0
:102C9000F4D43BE00128F7D0E868226A00F0030191
:102CA000914226D1616A00F0F00209011039914287
:102CB0001FD1A26A00F4FE41B1EB022F19D194F8A2
:102CC0002C2000F07841B1EBC26F12D1218E00F4BC
:102CD000C00249084905A1F50011914209D194F8B3
:102CE000341000F0C06049084906A1F1007181422A
:102CF0000CD00120C8E70000001002402C0000208A
:102D000000700040FFFFEEFE0C809F010020BBE73B
:102D100010B500680B4641680D480140080CD8709A
:102D2000C1F304245C7001F03F049C70C1F3423194
:102D3000197052B902F0ABFCD870587802F0A7FCB9
:102D40005870987802F0A3FC9870002010BD000025
:102D50003FFFFF0010B50B460168896859600168A4
:102D60000969C1F30E019960006801680D480140CE
:102D7000C1F305401870C1F306245C7001F07F04B4
:102D80009C70890DD97052B902F081FC1870587886
:102D900002F07DFC5870987802F079FC9870002061
:102DA00010BD00007F7F7F0070B504004FF0010070
:102DB00040D094F8250028B9002084F8240020464B
:102DC00000F03CF8022084F825002168CA204862FF
:102DD000216853204862204602F06EFC10BB206838
:102DE0008169154A11408161216888696268A36917
:102DF000104322691A43104388612189E06840EA40
:102E0000014021680861204602F07BFC50B9D4E9FA
:102E10000721114322686369956925F060452B43BA
:102E2000194391612268FF215162002802D10121DA
:102E300084F8251070BD0000BFFF8FFB10B592B065
:102E4000044644216846FDF701FC10492068884289
:102E50001AD14FF4002000904FF440701090684653
:102E6000FFF7C2FA08B1FEF749FC094850F8901F75
:102E700041F4004140F83819016841F48061016073
:102E8000006800F48060119012B010BD002800406E
:102E90000010024070B5044690F824000B4601284B
:102EA0001BD0012684F82460022084F82500B2B1EA
:102EB0009878D97840EA014558781978000240EAB4
:102EC000413005432168CA20486221685320486286
:102ED000204602F0F1FBD0B120E0022070BD58780E
:102EE000C10603D500F0EF000A305870D87802F020
:102EF000D7FB0504587802F0D3FB45EA0025987803
:102F000002F0CEFB0543187845EA4035DAE7084879
:102F1000054020684560204602F0F3FB2268FF214F
:102F2000516208B984F82560002184F8241070BD2E
:102F30003FFFFF002DE9F041044690F82400904641
:102F40000D46012811D0012784F82470022084F84E
:102F500025002168CA204862216853204862204623
:102F600002F0AAFB002618B129E00220BDE8F0819A
:102F70002068B8F1000F80694FEA406024D0002833
:102F800000DBEE70A8782978EA7840EA0140697899
:102F9000090241EA82510843184908402168086043
:102FA0002068816921F480218161D5E9030108430A
:102FB00021688A6910438861204602F0A2FB2268DA
:102FC000FF215162A0B115E0002800DBEE702878E7
:102FD00002F066FB0304687802F062FB43EA002318
:102FE000A87802F05DFB0343E87843EA8050D3E71A
:102FF00084F8257084F82460B8E700007F7F7F00A4
:1030000070B504460068C16821F02001C160FFF777
:10301000EDF805464FF47A7607E000BFFFF7E6F8D3
:10302000401BB04201D9032070BD2068C0688006F3
:10303000F4D5002070BD10B5401EB0F1807F01D3E3
:10304000012010BD4FF0E02460610F21601703F0F4
:103050006EFC0020A06107202061002010BD704799
:1030600070477047F0B590F83C20012A4AD0012201
:1030700080F83C20CA688B6822F440721A434B687F
:1030800022F480621A430B6822F400621A430B692F
:1030900022F480521A434B6922F400521A430B6BFC
:1030A00022F480421A430B8B22F4702242EA03423C
:1030B000154C03680026154DA34201D0AB4203D145
:1030C000CF6922F080523A43A34201D0AB4214D1DF
:1030D0000F8D22F4700242EA07520F6A22F08072CA
:1030E0003A434F6A22F000723A43A34201D0AB4206
:1030F00003D1C96A22F000520A435A6480F83C6046
:103100000020F0BD0220F0BD002C01400034014041
:103110007047704770470000F0B590F83C20012AD6
:103120003AD0012580F83C50022280F83D20036807
:103130005A689C68194E1A4FB34201D0BB4204D161
:1031400022F4700C4A6842EA0C02DFF858C002EA26
:103150000C02D1F800C04CEA020CC3F804C00268AB
:10316000B2420DD0B2F1804F0AD00F4B9A4207D035
:103170000E4B9A4204D0BA4202D00D4B9A4204D16F
:10318000896824F080031943916080F83D50002144
:1031900080F83C100846F0BD0220F0BD002C014034
:1031A000003401408FFFFFFD000400400008004094
:1031B00000400140704710B5040003D094F83D0072
:1031C00010B107E0012010BD002084F83C0020462B
:1031D00000F022F8022084F83D00211D206802F052
:1031E0006DFB012084F8480084F83E0084F83F001D
:1031F00084F8400084F8410084F8420084F84300D9
:1032000084F8440084F8450084F8460084F84700B8
:1032100084F83D00002010BD10B586B0044614218E
:103220006846FDF713FA21682E48B1F1804F15D09A
:103230002D4A914238D1816D41F010018165806D38
:10324000002200F01000059003213620FFF734F82B
:103250005FF03600FFF722F806B010BD816D41F037
:1032600001018165816D01F001010591C16C41F0A1
:103270000101C164C06C002100F0010005904FF411
:10328000004000900220CDE901010390012004904C
:1032900069464FF09040FEF77BFE002202211C2081
:1032A000FFF70AF81C20D5E7104A91420ED1016EB3
:1032B00041F480310166006E002200F480300590F8
:1032C00003211820FEF7F8FF1820C3E7084A9142AF
:1032D000C2D1016E41F480210166006E00F48020AD
:1032E0000590B9E700100240001000400040014086
:1032F0000048014090F83D10012901D0012070479D
:10330000022180F83D1000680F4988420ED0B0F1CC
:10331000804F0BD00D49884208D00D49884205D016
:103320000C49884202D00C49884207D181680B4A77
:103330001140062906D0B1F5803F03D0016841F065
:103340000101016000207047002C01400004004092
:103350000008004000340140004001400700010027
:1033600090F83D10012901D001207047022180F81A
:103370003D100168CA6842F00102CA600068104945
:1033800088420ED0B0F1804F0BD00E49884208D051
:103390000D49884205D00D49884202D00C49884227
:1033A00007D181680B4A1140062906D0B1F5803F4C
:1033B00003D0016841F00101016000207047000066
:1033C000002C01400004004000080040003401408F
:1033D000004001400700010070B5044690F83C0031
:1033E0000025012814D0012684F83C60022084F8CE
:1033F0003D0022689068364B184020F47F40906072
:10340000086870282ED010DC10F00F0F03D021E0D8
:103410004FF0020070BD4FEA2012072A1AD2DFE8EF
:1034200002F0525252524A3840002A4BC21A984275
:1034300049D009DCB0F5805F0DD0B0F5005F1CD03D
:10344000B0F1101F06D13EE0102A3CD0202A3AD01D
:10345000502A38D0012584F83D60002084F83C00D3
:10346000284670BDCB68D1E90121206802F08BFAB3
:103470002068816841F0770109E0CB68D1E901213A
:10348000206802F080FA2068816841F48041816000
:10349000E1E7CA684968206802F088FC502120688A
:1034A00006E0CA684968206802F0C8FC602120680C
:1034B00002F074FACFE7CA684968206802F076FC27
:1034C00040212068F4E7226801461046F0E700003A
:1034D00088FFCEFF2000100010B50168B1F1804FC9
:1034E0000AD1017F0F4C012907D0022904D1042100
:1034F00000F008FD401CE08010BD002100F002FD3E
:10350000401C80B2A080E18800EE101AF8EE400A5C
:1035100000EE100AB8EE400A80EE801A84ED031A1D
:1035200010BD0000000000202DE9F041054690F894
:103530003C0000260C46012810D0012085F83C00F4
:1035400072B1042A1CD0082A2CD00C2A50D0012693
:10355000002085F83C003046BDE8F0810220FBE702
:10356000D4E90012E368286802F032FC2868816917
:1035700021F00C01816128688169A26811430FE084
:10358000D4E90012E368286802F06AFC28688169BF
:1035900021F44061816128688169A26841EA0221C1
:1035A0008161D5E72868D4E9002C277B016A21F4E2
:1035B00080710162C169036A21F0030141EA0C01D3
:1035C00021F0F00C39074FF420674CEA116123F425
:1035D000206307EA02221A43C16102622868C169B6
:1035E00021F00C01C1612868C169A268114328E07B
:1035F0002868D4E90027E168036A23F48053036252
:10360000D0F81CC0036A2CF4407C4CEA07274FF624
:10361000FF7C27F470470CEA013139434FF420470F
:1036200023F4204307EA02321A43C1610262286888
:10363000C16921F44061C1612868C169A26841EA99
:103640000221C16184E710B5040003D094F83D0065
:1036500010B107E0012010BD002084F83C00204696
:1036600000F022F8022084F83D00211D206802F0BD
:1036700025F9012084F8480084F83E0084F83F00D2
:1036800084F8400084F8410084F8420084F8430044
:1036900084F8440084F8450084F8460084F8470024
:1036A00084F83D00002010BD7047000030B504468E
:1036B000002571B1042911D0082914D00C2917D084
:1036C000102918D094F8430094F84720012817D106
:1036D00014E094F83E0094F84420F7E794F83F0093
:1036E00094F84520F2E794F8400094F84620EDE77E
:1036F00094F84100E8E794F84200E5E7012A01D098
:10370000012030BD022079B1042916D008291DD02E
:103710000C2949D010294AD084F8430084F8470086
:103720000C2947D001253DE084F83E0084F8440090
:103730002068C26842F0020210E084F83F0084F87A
:1037400045002068C26842F0040207E084F84000A7
:1037500084F846002068C26842F00802C260012274
:10376000206802F003F91649206888420ED0B0F1B3
:10377000804F0BD01349884208D01349884205D0A6
:103780001249884202D01249884207D18168114A01
:103790001140062906D0B1F5803F03D0016841F001
:1037A00001010160284630BD84F84100B6E784F885
:1037B0004200B3E72068C26842F01002CEE7000082
:1037C000002C01400004004000080040003401408B
:1037D000004001400700010070B50446006801691F
:1037E0004FF00005C943890715D4C168C94389074B
:1037F00011D4E91E016101202077206880698007CB
:10380000204602D0FFF768FE04E000F055F920469C
:1038100000F0EAFA257720680169C943490717D4FF
:10382000C168C943490713D46FF004010161022044
:1038300020772068806910F4407F204602D0FFF78F
:103840004BFE04E000F038F9204600F0CDFA257771
:1038500020680169C943090716D4C168C94309072B
:1038600012D46FF008010161042020772068C0693C
:103870008007204602D0FFF72FFE04E000F01CF97D
:10388000204600F0B1FA257720680169C943C906CE
:1038900017D4C168C943C90613D46FF01001016180
:1038A000082020772068C06910F4407F204602D0AD
:1038B000FFF712FE04E000F0FFF8204600F094FA53
:1038C000257720680169C943C90708D1C168C94380
:1038D000C90704D1891E0161204600F005FB20685C
:1038E0000169C943090609D4C168C943090605D459
:1038F0006FF0800101612046FFF7B2FB206801698B
:10390000C943C90509D4C168C943090605D46FF480
:10391000807101612046FFF7A2FB20680169C9435D
:10392000490609D4C168C943490605D46FF040016E
:103930000161204600F026FB20680169C943890621
:1039400009D4C168C943890605D46FF0200101611B
:103950002046FFF786FB20680169C943C90209D4E4
:10396000C168C943C90205D46FF4801101612046C2
:10397000FFF7CFFB20680169C943890209D4C168F8
:10398000C943890205D46FF4001101612046FFF795
:10399000BFFB20680169C943490209D4C168C94312
:1039A000490205D46FF4800101612046FFF7B2FBA4
:1039B00020680169C94309020BD4C168C9430902DF
:1039C00007D46FF4000101612046BDE87040FFF7A5
:1039D000F1BB70BD30B587B0044614216846FCF7D2
:1039E00035FE2468154D0023154902224FF0904002
:1039F000AC420CD1CC6C44F00104CC64C96C01F035
:103A00000101059104218DE80E0009210EE00D4D04
:103A1000AC4210D1CC6C44F00104CC64C96C01F010
:103A20000101059180218DE80E000121CDE90321DE
:103A30006946FEF7ADFA07B030BD00000040014016
:103A4000001002400048014070B5044690F83C0068
:103A5000002501280BD0012084F83C000C2A1ED040
:103A600007DC82B1042A12D0082A06D113E0022012
:103A700070BD102A17D0142A19D00125002084F80F
:103A80003C00284670BD206801F092FFF6E72068F0
:103A900001F0DCFFF2E7206802F020F8EEE7206892
:103AA00002F064F8EAE7206802F0A8F8E6E7206888
:103AB00002F0DCF8E2E70000054A0168914206D115
:103AC000007F012803D1486A00F5FA704863704707
:103AD0000040014010B5040003D094F83D0010B13F
:103AE00007E0012010BD002084F83C00204600F0D3
:103AF00022F8022084F83D00211D206801F0DEFE3E
:103B0000012084F8480084F83E0084F83F0084F8DF
:103B1000400084F8410084F8420084F8430084F8AF
:103B2000440084F8450084F8460084F8470084F88F
:103B30003D00002010BD704770B5002504460222EC
:103B400069B1042916D0082955D00C295ED0102956
:103B500063D094F84300012866D0012070BD94F82A
:103B60003E000128F9D184F83E202068C26842F066
:103B7000020209E094F83F000128EED184F83F20CA
:103B80002068C26842F00402C2600122206801F08D
:103B9000EDFE2B4920682B4A2B4B884209D09042DE
:103BA00007D0984205D0294EB04202D0284EB042EC
:103BB00003D1466C46F400464664206888420CD027
:103BC000B0F1804F09D02349884206D0224988426B
:103BD00003D0904201D0984207D181681F4A11401A
:103BE000062906D0B1F5803F03D0016841F00101FC
:103BF0000160284670BD94F840000128ADD184F8DA
:103C000040202068C26842F00802BDE794F84100F5
:103C10000128A2D184F8412008E094F8420001284C
:103C20009BD184F8422003E084F843200C2901D082
:103C30000125DEE72068C26842F01002A4E7000018
:103C4000002C01400034014000400140004401408C
:103C50000048014000040040000800400700010047
:103C600070B5044690F83C0000260D4601280BD0A4
:103C7000012084F83C000C2A4AD007DC82B1042AD7
:103C800020D0082A06D131E0022070BD102A53D07E
:103C9000142A63D00126002084F83C00304670BD11
:103CA000206801F085FE2068816941F0080181618A
:103CB0002068816921F004018161206881692A6995
:103CC000114311E0206801F0C1FE2068816941F4D0
:103CD000006181612068816921F4806181612068CF
:103CE00081692A6941EA02218161D4E7206801F0F3
:103CF000F5FE2068C16941F00801C1612068C16911
:103D000021F00401C1612068C1692A69114311E0F1
:103D1000206801F02BFF2068C16941F40061C16196
:103D20002068C16921F48061C1612068C1692A6984
:103D300041EA0221C161AEE7206801F05FFF20681F
:103D4000016D41F0080101652068016D21F0040159
:103D500001652068016D2A69114311E0206801F0B6
:103D600085FF2068016D41F4006101652068016DE7
:103D700021F4806101652068016D2A6941EA022110
:103D8000016588E710B5040003D094F83D0010B138
:103D900007E0012010BD002084F83C00204600F020
:103DA00022F8022084F83D00211D206801F086FDE4
:103DB000012084F8480084F83E0084F83F0084F82D
:103DC000400084F8410084F8420084F8430084F8FD
:103DD000440084F8450084F8460084F8470084F8DD
:103DE0003D00002010BD70477047000030B504460C
:103DF000022269B1042912D0082917D00C291CD03D
:103E0000102921D094F84300012824D0012030BD8E
:103E100094F83E000128F9D184F83E201DE094F882
:103E20003F000128F2D184F83F2016E094F84000CA
:103E30000128EBD184F840200FE094F841000128DC
:103E4000E4D184F8412008E094F842000128DDD153
:103E500084F8422001E084F843200122206801F028
:103E600085FD194B20681949194A984209D08842A2
:103E700007D0904205D0174DA84202D0164DA84257
:103E800003D1456C45F400454564206898420CD048
:103E9000B0F1804F09D0114B984206D0104B984298
:103EA00003D0884201D0904207D181680D4A114069
:103EB000062906D0B1F5803F03D0016841F0010129
:103EC0000160002030BD0000002C014000340140A2
:103ED000004001400044014000480140000400400F
:103EE000000800400700010000680449884203D12F
:103EF00003494888401C488070470000001000407B
:103F0000000000200246002041B1042909D0082900
:103F10000AD00C2901D11068006C70471068406B02
:103F200070471068806B70471068C06B704770B541
:103F3000044690F83C00012812D0012584F83C503A
:103F4000022084F83D00204601F0C8FE01004FF039
:103F5000000007D084F83D5084F83C00012070BD7B
:103F6000022070BD2168CA6822F04002CA60216840
:103F7000CA6822F48042CA6084F83D5084F83C004C
:103F8000002070BD704790F88010012918D00121E1
:103F900080F880102421C0F8841050F8641B0A684F
:103FA0000B6823F001030B6022F000510022026035
:103FB00050F8643C19602021016202771046704776
:103FC000022070477047704770B5044690F8800033
:103FD00001281DD0012084F880002420C4F884002A
:103FE00020680568026822F0010202602068826889
:103FF00022F060620A438260204601F04DFF206893
:1040000005602020C4F88400002084F8800070BD82
:10401000022070BD70B5044690F8800001281DD0C4
:10402000012084F880002420C4F8840020680568FA
:10403000026822F0010202602068826822F0604279
:104040000A438260204601F027FF20680560202097
:10405000C4F88400002084F8800070BD022070BD88
:1040600070477047704700002DE9F041036804462F
:10407000D86919689A6840F60F0528424FF0000584
:1040800009D186067ED501F0200602F080573E4316
:1040900078D0216F27E1A94EA94F16400F40374332
:1040A00070D0C70709D0CF0507D501271F62D4F804
:1040B0008C3043F00103C4F88C3083070AD5D30752
:1040C00008D0276802233B62D4F88C3043F0040305
:1040D000C4F88C3043070AD5D30708D027680423D7
:1040E0003B62D4F88C3043F00203C4F88C300307F1
:1040F0000CD501F02003334308D02668082333622F
:10410000D4F88C3043F00803C4F88C3003050BD589
:104110004B0109D526684FF400633362D4F88C3024
:1041200043F02003C4F88C30D4F88C30002B3AD004
:10413000800609D501F0200002F08051084303D029
:10414000216F09B120468847D4F88C00216889681E
:10415000490602D410F0280F27D0204601F05CFF5A
:104160002068806840061BD52068083050E8001F92
:1041700021F0400140E80012002AF5D1E06F78B14B
:10418000704900E017E08163E06FFDF7B2FE0028A0
:1041900009D0E06F816B00E02046BDE8F0410847A0
:1041A0002046FFF75FFFBDE8F0812046FFF75AFF8A
:1041B000C4F88C50F7E7E76E2026012F7ED1C706A2
:1041C0007CD5CF067AD5102018622068806840061A
:1041D00042D5E16F086840680004000CE3D0B4F8F1
:1041E0005C208242DFD9A4F85E000868006880067F
:1041F0002BD4206850E8001F21F4807140E80012A1
:10420000002AF6D12068083050E8001F21F0010193
:1042100040E80012002AF5D12068083050E8001F5D
:1042200021F0400140E80012002AF5D1C4F888606E
:10423000E566216851E8000F20F0100041E8000217
:10424000002AF6D1E06FFDF71FFEB4F85C00B4F869
:104250005E10401A81B22CE0B4F85C00B4F85E1035
:10426000401A81B2B4F85E0000289CD000299AD090
:10427000226852E8000F20F4907042E80003002BFF
:10428000F6D12E4BDB432068083050E8002F1A404F
:1042900040E80027002FF6D1C4F88860E56625675E
:1042A000226852E8000F20F0100042E80003002BC3
:1042B000F6D12046FFF786FE75E7FFE7C70209D56E
:1042C000570207D54FF4801018622046BDE8F04130
:1042D000FFF7C7BE03060AD501F0800302F400020F
:1042E000134304D0616F00297FF456AF5BE74206A9
:1042F00011D54A060FD52046016851E8002F22F05B
:10430000400241E80023002BF6D1C0F884604567E5
:1043100000F030F947E7020206D54A0004D52046EE
:10432000BDE8F041FFF79CBEC001C5D50029C3DA46
:104330002046BDE8F041FFF746BE00000100001036
:10434000200100040560000810B5040003D0D4F873
:10435000840010B107E0012010BD002084F8800027
:10436000204600F027F82420C4F884002068016863
:1043700021F001010160204602F090F80128EBD005
:10438000A06A10B1204601F0A9FD2068416821F41F
:10439000904141602068816821F02A018160206895
:1043A000016841F0010101602046BDE8104001F0C4
:1043B000F9BD000010B598B00446142111A8FCF70F
:1043C00045F944216846FCF741F91B4920688842B9
:1043D00030D101200024CDE900046846FEF704F83E
:1043E00008B1FDF78BF91548016E41F48041016673
:1043F000016E01F480411691C16C41F00101C1646C
:10440000C06C11A900F0010016904FF4C06011902B
:104410000220CDE912040720CDE914404FF090406E
:10442000FDF7B6FD002211462520FDF745FF2520AA
:10443000FDF734FF18B010BD0038014000100240F5
:1044400030B4D0F88830202B20D1E1B1DAB190F827
:104450008030012B1AD0012380F880300023C366FE
:104460000B4C0368A3420BD05B681B0208D50468A1
:1044700054E8003F43F0806344E80035002DF6D156
:1044800030BC02F045B9012030BC70470220FBE788
:104490000080004010B5322301220549054800F094
:1044A0000BF8BDE81040012201490248FFF7C8BFE0
:1044B000000000202C0200202DE9F8430446D0F82B
:1044C00084001F4616460D46202851D1DDB1D6B1D5
:1044D00094F8800001284BD0012084F880004FF030
:1044E0000008C4F88C802120C4F884001834FDF73B
:1044F0007DFEA6878146E68754F8100C183CB0F57F
:10450000805F03D004E00120BDE8F883206920B17A
:104510002E46002584F8808010E00026FAE78021EE
:10452000204602F081F9B8B9C6B116F8010B21682E
:104530008862B4F85600401EA4F85600B4F856003D
:104540004B464FF0000200970028E8D14FF04001A1
:10455000204602F069F930B10320D5E735F8020BA7
:10456000C0F30800E3E72020C4F884000020CBE774
:104570000220C9E77047FEE700B585B01421684600
:10458000FCF764F8C0200090012001900290022006
:10459000039069460248FDF7FBFC05B000BD000032
:1045A0000004004870B50824002501F0FFF813E06E
:1045B0006806050E002001F0E1F8142002F0CEF9A3
:1045C000142002F0CBF9012001F0D8F8142002F0F9
:1045D000C5F901F0DFF80543641EE4B2E8D200201B
:1045E00001F0CCF8142002F0B9F901F001F92846E5
:1045F00070BD10B5002001F0EFF8142002F0AEF904
:10460000142002F0ABF9012001F0B8F8142002F0F8
:10461000A5F9002001F0B2F8BDE81040142002F026
:104620009DB970B50446082516E001F0A7F81420DE
:1046300002F094F904F0800001F0CEF8142002F0AA
:104640008DF96006040E142002F088F9012001F0B3
:1046500095F8142002F082F96D1EEDB24FF00000C3
:10466000E3D201F08BF8BDE87040142002F076B977
:1046700010B5012001F0B0F8142002F06FF91420F9
:1046800002F06CF9012001F079F8142002F066F9CB
:10469000002001F073F8BDE81040142002F05EB96C
:1046A00010B5012001F098F8142002F057F901200C
:1046B00001F064F8142002F051F9002001F08CF8A8
:1046C000142002F04BF9002001F058F8BDE810402A
:1046D000142002F043B910B5002001F04FF8142067
:1046E00002F03CF9002001F077F8142002F036F9CE
:1046F000012001F043F8142002F030F9012001F00C
:104700006BF8BDE81040142002F028B910B505245C
:1047100001F04CF8142002F021F9012001F02EF8EC
:10472000142002F01BF905E0641EA4B2142002F06C
:1047300015F964B101F02EF80028F5D101F01EF84A
:10474000142002F00BF901F053F8002010BD01F025
:104750004FF8FFF7C0FF012010BD70B515460E469B
:104760000446FFF79DFFA020FFF75BFFFFF7CEFF9A
:10477000F0B2FFF756FFFFF7C9FFFFF791FFA12047
:10478000FFF74FFFFFF7C2FF09E0FFF70BFF04F849
:10479000010B15B1FFF72DFF01E0FFF769FF6D1E5B
:1047A000ADB2F2D2BDE87040FFF795BF70B51446C8
:1047B0000E460546FFF774FFA020FFF732FFFFF714
:1047C000A5FFF0B200E02878FFF72BFFFFF79EFF70
:1047D000641EA4B2F7D2FFF77EFFBDE870404FF42D
:1047E000FA7002F0BBB8000010B5052200210F4896
:1047F000FFF7DCFF0220FDF7B9FB0C480522002182
:10480000801DFFF7AAFF0D2000F025F800F012F838
:1048100000EE100ADFED060A0448B8EE400A183828
:1048200020EE200A80ED020A10BD000018000020D2
:104830000C93493F10B5FFF733FF5F20FFF7F1FE00
:10484000FFF764FFFFF7AEFE0446FFF711FFFFF727
:1048500042FF204610BD10B50446FFF721FF5E2041
:10486000FFF7DFFEFFF752FF2046FFF7DAFEFFF704
:104870004DFFBDE81040FFF72EBF000000B585B02A
:1048800014216846FBF7E2FE4FF6FF70009000200F
:104890000321CDE90201019069460248FDF778FB4A
:1048A00005B000BD0008004800B585B01421684679
:1048B000FBF7CCFE4FF6FF70009001200190032023
:1048C00003900020029069460248FDF761FB05B0A5
:1048D00000BD00000008004870B5002406462146CF
:1048E000204600F003F900F041F94FF496353046C8
:1048F00000F010F9641CAC42F9D370BD30B587B03C
:1049000014216846FBF7A2FE1E48C16C41F0040169
:10491000C164C16C01F004010591C16C41F0010159
:10492000C164C16C01F001010591C16C41F002014B
:10493000C164C06C012500F0020005904FF448707E
:10494000CDE9000500240394694602940E48FDF762
:104950001FFB280203940090CDE901544FF09044CE
:1049600069462046FDF714FBFFF79EFFA06940F45F
:104970008070A06104481830016841F4087101603A
:1049800007B030BD0010024000040048203AD2B207
:10499000034B02EB420203EB021200F019B80000D5
:1049A0003C6B0008F0B50E460746002540F23F1468
:1049B00007E021463846FFF7E9FF103C6D1CA4B222
:1049C000761C3278002A01D0142DF2D3F0BD0000FD
:1049D0002DE9F04791468A460026044600F086F805
:1049E000DFF84080012700BF00F0C0F85FF000054D
:1049F00039F8160007FA05F10842404601D140880F
:104A000000E0008800F086F86D1C102DF0D3641CC7
:104A1000E4B25146204600F069F8761C182EE3D324
:104A2000BDE8F0872400002010B5FFF767FF0020E5
:104A300000F014F8084CA080A088A0F5024130399D
:104A400006D000F023FD002000F008F8A08010BD83
:104A500000F093FCF7E700002400002070B51D492A
:104A60000A6842F400720A600A6842F480720A60BE
:104A7000184C103C226842F020022260164A106056
:104A8000086840F02000086000BF00BF00BF206839
:104A900040F020002060206840F480702060FFF724
:104AA000EDFE4FF09041886A40F48070886200BF4C
:104AB00000BF00BF0848001F006885B2886940F445
:104AC00080708861FFF7F0FE206840F4007020607D
:104AD000284670BD280400481408004801B5BDF8F8
:104AE00000000149488008BD2400002010B50C4694
:104AF0000146202000F068F82146BDE81040212042
:104B000000F062B801B5BDF800000149088008BD99
:104B100024000020134A116841F40071116011490A
:104B200010390B6843F480730B600B6843F020036B
:104B30000B600D4B1860106840F02000106000BF43
:104B400000BF00BF086840F020000860086840F41B
:104B50008070086000BF00BF00BF086840F40070AC
:104B60000860704728040048140800481449086881
:104B700040F400700860086840F4807008601048D5
:104B80001038026842F0200202600E4B22221A60A6
:104B90000A6842F020020A6000BF00BF00BF01683F
:104BA00041F020010160016841F48071016000BFA3
:104BB00000BF00BF016841F4007101607047000050
:104BC0002804004814080048184B10B51A6842F42D
:104BD00000721A601A6842F480721A60134A103A1E
:104BE000146844F020041460114C2060186840F0F0
:104BF0002000186000BF00BF00BF106840F0200018
:104C00001060106840F4807010602160186840F0F7
:104C10002000186000BF00BF00BF106840F02000F7
:104C20001060106840F48070106010BD28040048C7
:104C30001408004870B5124D044601224FF47F411C
:104C40002846FDF7CEFA0F4E012204213046FDF72B
:104C5000C8FA002204213046FDF7C3FA21020022DF
:104C60002846FDF7BEFA012204213046FDF7B9FAC5
:104C70003046BDE8704000220421FDF7B2BA0000C2
:104C800000080048000C004800EB8100006E00F0B6
:104C9000F84070478068C0F3C00070478068C0F378
:104CA00080007047042303EAD15310B518444369C8
:104CB000C1F3045107248C40A3438A40134343614A
:104CC00010BD00EB8100016E21F00041114301662F
:104CD000704700003EB549488178009143780278DA
:104CE00047A11838FBF772FB444900201839FFF739
:104CF00059FE484C48A1A078009040486378E2787B
:104D00001838FBF763FB3D4918201839FFF74AFEB6
:104D10003A48227845A11838FBF758FB374930202C
:104D20001839FFF73FFE143C206901F08FFE41EC7B
:104D3000100B324853EC102B3FA11838FBF746FB01
:104D40002E4948201839FFF72DFE04F11E00817806
:104D50000379C2788DE80E0043780278274839A19C
:104D60001838FBF733FB254960201839FFF71AFE86
:104D7000A06801F06BFE41EC100B204853EC102BA7
:104D800035A11838FBF722FB1C4978201839FFF7AA
:104D900009FE1A48628833A11838FBF717FB174938
:104DA00090201839FFF7FEFDA0883149B1FBF0F0E3
:104DB00082B212482FA11838FBF708FB0F49A82030
:104DC0001839FFF7EFFD94ED030ADFED2E0A20EE10
:104DD000200A10EE100A01F039FE41EC100B0748D2
:104DE00053EC102B28A11838FBF7F0FA03B0034955
:104DF000BDE830401839C020FFF7D4BD5400002072
:104E000054696D653A253032642D253032642D2584
:104E10003032640014000020446174653A25303259
:104E2000642D253032642D25303264005765656B62
:104E30004461793A256400004164633A25342E3296
:104E400066000000456570726F6D3A2578257825FB
:104E500078257825780000005265733A25342E3283
:104E60006600000054696D65363A253035640000EF
:104E700040420F0046657175656E63793A2530359D
:104E8000640000000000C842447574793A25342E4D
:104E9000326625250000000030B589B02021684623
:104EA000FBF7D4FB19481849002401608902C0E9C6
:104EB0000114C46004250461C0E905450477447702
:104EC0000121016280F82440C462046380F8384004
:104ED000C46380F84040FCF723FE08B1FCF70EFCE9
:104EE0000B48009006200190072002907F20059437
:104EF000CDE9030569460548FCF702FC002801D00E
:104F0000FCF7FCFB09B030BD000100506800002038
:104F10000080F03EF0B587B014216846FBF796FBA1
:104F20002D48C16C41F00401C164C16C01F0040161
:104F30000591C16C41F02001C164C16C01F02001F8
:104F40000591C16C41F00101C164C16C01F0010126
:104F50000591C16C41F00201C164C16C01F0020114
:104F60000591C16C41F00801C164C06C1B4E00F09A
:104F700008004FF47F440590012221463046FDF79A
:104F800030F9174F002204213846FDF72AF9012590
:104F9000CDE9004500240294694630460394FCF7AD
:104FA000F7FFCDE9005469464FF090400294FCF7BA
:104FB000EFFF0720CDE9000469460A480294FCF798
:104FC000E7FF04200090CDE9015469463846039478
:104FD000FCF7DEFF07B0F0BD0010024000080048FB
:104FE000000C00480004004810B586B01421684643
:104FF000FBF72CFB214800241F490594C0E900144D
:105000007D21816041F27071C0E903144FF080414D
:105010004461C0E906410462FDF7C6FE08B1FCF731
:105020006DFB17208DF8000029208DF801008DF808
:105030000240019403940022694610480494FDF74D
:1050400079FF08B1FCF75AFB05208DF81400032006
:105050008DF815000B208DF8160016208DF817001E
:10506000002205A90548FDF715FF002801D0FCF72F
:1050700045FB06B010BD000000280040D400002011
:1050800010B59CB000241494159416941794189499
:1050900019941C210DA81A94FBF7D8FA34216846FC
:1050A000FBF7D4FA2948284901604F21C0E90114CF
:1050B0004FF6FF71C0E903148021C0E90541FEF7F6
:1050C0007AF808B1FCF71AFB4FF48050149014A939
:1050D0001E48FEF781F908B1FCF710FB1B48FEF7EC
:1050E000F9FC08B1FCF70AFB189418A917481A94A0
:1050F000FEF712F808B1FCF701FB30200D90642098
:10510000CDE90E0410941194129400220DA90F48B9
:105110001394FEF799FC08B1FCF7F0FA00944FF4F1
:105120000050CDE90440019402940394069469462A
:1051300006480C94FDF796FF08B1FCF7DFFA034828
:10514000FEF748FC1CB010BD004001409401002057
:1051500010B594B01C210DA8FBF778FA34216846ED
:10516000FBF774FA21482049002401604F21C0E96F
:10517000011440F2E731C0E903148021C0E9054180
:10518000FEF719F808B1FCF7B9FA1848FEF7FAFD6E
:1051900008B1FCF7B3FA60200D904FF46170CDE9CF
:1051A0000E0410941194129400220DA90F48139428
:1051B000FEF756FD08B1FCF7A1FA00944FF4005039
:1051C000CDE904400194029403940694694607488B
:1051D0000C94FDF747FF08B1FCF790FA0348FEF77F
:1051E000F9FB14B010BD000000480140E0010020B0
:1051F00010B590B0002409940A940B94142104A8CB
:105200000C94FBF723FA2D480D940F940E94009400
:10521000019402944FF08041039401604F21C0E952
:1052200001144FF6FF71C0E9031480218161FDF77D
:10523000C2FF08B1FCF762FA4FF48050099009A947
:105240001E48FEF7C9F808B1FCF758FA1B48FEF7EC
:10525000FAF908B1FCF752FA042004905020CDE985
:10526000050404A915480894FEF761FE08B1FCF78F
:1052700045FA0D940DA911480F94FDF74DFF08B1A3
:10528000FCF73CFA0120CDE9004002940022694677
:105290000A480394FEF748F908B1FCF72FFA0220F8
:1052A00000900190042269460448FEF73DF9002869
:1052B00001D0FCF723FA10B010BD0000FC00002064
:1052C0003EB500241048009401940E4902940160F8
:1052D00041F63F71C0E9011442F20F71C1608021B3
:1052E0008161FDF768FF08B1FCF708FA0094694690
:1052F00005480294FDF710FF002801D0FCF7FEF9E5
:105300003EBD00000010004048010020184810B5C4
:10531000164901604FF416514160002181600C2252
:10532000C160C0E904128161C161016241628162B0
:10533000FFF70AF808B1FCF7E1F900210C48FEF785
:1053400069FE08B1FCF7DAF900210948FEF73CFED6
:1053500008B1FCF7D3F90648FEF715FE002803D084
:10536000BDE81040FCF7CAB910BD0000003801408C
:105370002C020020FEE7FEE7704730B50121002037
:10538000FFF722FC4FF47A70FCF7AAF90021012004
:10539000FFF71AFC41F290711020FFF715FC4FF453
:1053A0001C516020FFF710FC01216120FFF70CFC6D
:1053B00002214620FFF708FC48F210011320FFF7F6
:1053C00003FC48F2FE011220FFF7FEFB4FF4A06140
:1053D0000220FFF7F9FB41F230010320FFF7F4FB55
:1053E00040F2033421463020FFF7EEFB2146312006
:1053F000FFF7EAFB21463220FFF7E6FBE51E2946D0
:105400003320FFF7E1FB03213420FFF7DDFB2146CA
:105410003520FFF7D9FB14213620FFF7D5FB2146B5
:105420003720FFF7D1FB21463820FFF7CDFB21467F
:105430003920FFF7C9FB29463A20FFF7C5FB0321B6
:105440003B20FFF7C1FB21463C20FFF7BDFB4FF49B
:10545000A0513D20FFF7B8FB4FF400719220FFF7F9
:10546000B3FB21469320FFF7AFFB40F60D019020E0
:10547000FFF7AAFB41F218010320FFF7A5FBBDE8E7
:10548000304040F273110720FFF79EBB10B543F286
:105490000801E320FFF798FB1221E720FFF794FBB8
:1054A00041F23121EF20FFF78FFB00210120FFF7B0
:1054B0008BFB4FF4E0610220FFF786FB41F23001E5
:1054C0000320FFF781FB00210420FFF77DFB40F262
:1054D00007210820FFF778FB00210920FFF774FB64
:1054E00000210A20FFF770FB00210C20FFF76CFB66
:1054F00000210D20FFF768FB00210F20FFF764FB60
:1055000000211020FFF760FB07211120FFF75CFB53
:1055100000211220FFF758FB00211320FFF754FB56
:10552000C820FCF723FD41F290611020FFF74CFBEF
:1055300040F227211120FFF747FB3220FCF716FD30
:105540001D211220FFF740FB3220FCF70FFD4FF426
:1055500000611320FFF738FB14212920FFF734FBEB
:105560000B212B20FFF730FB3220FCF7FFFC002142
:105570002020FFF729FB00212120FFF725FB072131
:105580003020FFF721FB40F207713120FFF71CFBB1
:1055900006213220FFF718FB40F204713520FFF797
:1055A00013FB41F604713620FFF70EFB0421372070
:1055B000FFF70AFB00213820FFF706FB40F20671D7
:1055C0003920FFF701FB40F201713C20FFF7FCFAA4
:1055D0000F213D20FFF7F8FA00215020FFF7F4FAE1
:1055E000EF215120FFF7F0FA00215220FFF7ECFAEB
:1055F00040F23F115320FFF7E7FA4FF41C516020AF
:10560000FFF7E2FA01216120FFF7DEFA00216A20AC
:10561000FFF7DAFA00218020FFF7D6FA0021812077
:10562000FFF7D2FA00218220FFF7CEFA0021832073
:10563000FFF7CAFA00218420FFF7C6FA002185206F
:10564000FFF7C2FA10219020FFF7BEFA0021922046
:10565000FFF7BAFA03219320FFF7B6FA4FF48871E7
:105660009520FFF7B1FA00219720FFF7ADFA00214E
:105670009820FFF7A9FA41F218010320FFF7A4FAD6
:10568000BDE8104040F273110720FFF79DBA0109F1
:1056900001EB810100F00F0000EB4100C0B2704748
:1056A0000022014602E00A39C9B2521C0A29FAD284
:1056B000100741EA106070472DE9F0410446006888
:1056C0000025C168490619D4C16841F08001C16054
:1056D000FCF78CFD06464FF47A78032708E000BFFC
:1056E000FCF784FD801B404502D9032584F8257012
:1056F0002068C068400601D4032DF1D12846BDE8DA
:10570000F08170B5044600680025C16821F0800171
:10571000C160206881694FF00306890607D42046DE
:10572000FDF76EFC98B184F8256003250FE08169D0
:1057300021F0200181612046FDF762FC10B184F860
:10574000256003252068816941F020018161284698
:1057500070BD000010B5002205490648FDF7FAFAB1
:10576000BDE81040002204490248FDF7D1BA00000C
:1057700054000020D40000201400002008B1044888
:1057800001E003481030016841F0400101607047BA
:105790001804004810B580210348FCF71DFD0128BE
:1057A00000D0002010BD00000004004800B585B006
:1057B00014216846FAF74AFF8020009000200190EB
:1057C000012002900220039069460248FCF7E0FBAA
:1057D00005B000BD0004004808B1044801E00348DA
:1057E0001030016841F080010160704718040048E2
:1057F00000B585B014216846FAF728FF8020009094
:105800001120019000200290022003906946024876
:10581000FCF7BEFB05B000BD000400487047FCF774
:10582000EBBC10B594B038216846FAF70FFF14218D
:105830000EA8FAF70BFF4FF40070FCF76FFD012084
:1058400000900004019002200324CDE907041421F4
:10585000CDE90A100C900D9009946846FDF752F8B6
:1058600008B172B6FEE70F20CDE90E0400201090BB
:105870001190129002210EA8FCF7FAFE002801D028
:1058800072B6FEE714B010BD0248016841F4700121
:105890000160704788ED00E00148FDF79DBF000002
:1058A000940100200148FDF797BF0000FC00002094
:1058B0000148FDF791BF0000480100202DE9F043A9
:1058C0000268234B234D244E244C4FF080499842CC
:1058D00007D0484505D0A84203D0B04201D0A0422D
:1058E00003D122F070074A683A431D4FDFF874C0B5
:1058F000DFF8748098420DD048450BD0A84209D0FB
:10590000B04207D0A04205D0B84203D0604501D0D4
:10591000404503D122F44075CA682A434D6922F0FC
:1059200080022A4302608A68C2620A6882629842E0
:1059300007D0A04205D0B84203D0604501D0404511
:1059400001D10969016301214161BDE8F0830000D3
:10595000002C0140000400400008004000340140D9
:1059600000400140004401400048014010B501F0F2
:105970001F030121046A99408C430462016A9A4022
:105980001143016210BD10B5846842EA032224F479
:105990007F440A432243826010BD00008268034BAB
:1059A0001A400A4342F00701816070478FFFCFFF22
:1059B0002DE9F043026A22F001020262056A43689F
:1059C00082691C4C25F0020522400C6822F003027B
:1059D00014438A68194E2A43174D194FDFF864C0E3
:1059E000DFF86490A84207D0B04205D0B84203D097
:1059F000604501D0484506D122F00808CA6842EA4D
:105A0000080222F00402A84207D0B04205D0B842F2
:105A100003D0604501D0484505D14D6923F440735A
:105A20001D438B692B434360846149684163026273
:105A3000BDE8F0838FFFFEFF002C014000340140E1
:105A4000004001400044014000480140F0B5026AB6
:105A500022F010020262056A42688369194C1B4EEB
:105A600023400C6823F4407343EA042425F0200308
:105A70008D6843EA0513144DA84201D0B04206D107
:105A8000CF6823F0800343EA071323F04003A842C2
:105A90000AD0B04208D00E4DA84205D00D4DA84204
:105AA00002D00D4DA84207D14D6922F4406242EA6E
:105AB00085028D6942EA850242608461496881639A
:105AC0000362F0BDFF8FFFFE002C01400034014057
:105AD000004001400044014000480140F0B5026A26
